{
  "contractName": "ProofOfExistence",
  "abi": [
    {
      "constant": false,
      "inputs": [
        {
          "name": "document",
          "type": "string"
        }
      ],
      "name": "notarize",
      "outputs": [],
      "payable": false,
      "stateMutability": "nonpayable",
      "type": "function"
    },
    {
      "constant": true,
      "inputs": [
        {
          "name": "document",
          "type": "string"
        }
      ],
      "name": "proofFor",
      "outputs": [
        {
          "name": "",
          "type": "bytes32"
        }
      ],
      "payable": false,
      "stateMutability": "pure",
      "type": "function"
    },
    {
      "constant": true,
      "inputs": [
        {
          "name": "document",
          "type": "string"
        }
      ],
      "name": "checkDocumnet",
      "outputs": [
        {
          "name": "",
          "type": "bool"
        }
      ],
      "payable": false,
      "stateMutability": "view",
      "type": "function"
    }
  ],
  "bytecode": "0x608060405234801561001057600080fd5b506104b4806100206000396000f3fe608060405260043610610057576000357c0100000000000000000000000000000000000000000000000000000000900463ffffffff1680632c7a58b31461005c5780637183616c1461013c578063f6c1acdf146101c2575b600080fd5b34801561006857600080fd5b506101226004803603602081101561007f57600080fd5b810190808035906020019064010000000081111561009c57600080fd5b8201836020820111156100ae57600080fd5b803590602001918460018302840111640100000000831117156100d057600080fd5b91908080601f016020809104026020016040519081016040528093929190818152602001838380828437600081840152601f19601f82011690508083019250505050505050919291929050505061029e565b604051808215151515815260200191505060405180910390f35b34801561014857600080fd5b506101c06004803603602081101561015f57600080fd5b810190808035906020019064010000000081111561017c57600080fd5b82018360208201111561018e57600080fd5b803590602001918460018302840111640100000000831117156101b057600080fd5b90919293919293905050506102bd565b005b3480156101ce57600080fd5b50610288600480360360208110156101e557600080fd5b810190808035906020019064010000000081111561020257600080fd5b82018360208201111561021457600080fd5b8035906020019184600183028401116401000000008311171561023657600080fd5b91908080601f016020809104026020016040519081016040528093929190818152602001838380828437600081840152601f19601f82011690508083019250505050505050919291929050505061031c565b6040518082815260200191505060405180910390f35b6000806102aa8361031c565b90506102b581610431565b915050919050565b600061030c83838080601f016020809104026020016040519081016040528093929190818152602001838380828437600081840152601f19601f8201169050808301925050505050505061031c565b90506103178161045a565b505050565b60006002826040516020018082805190602001908083835b6020831015156103595780518252602082019150602081019050602083039250610334565b6001836020036101000a0380198251168184511680821785525050505050509050019150506040516020818303038152906040526040518082805190602001908083835b6020831015156103c2578051825260208201915060208101905060208303925061039d565b6001836020036101000a038019825116818451168082178552505050505050905001915050602060405180830381855afa158015610404573d6000803e3d6000fd5b5050506040513d602081101561041957600080fd5b81019080805190602001909291905050509050919050565b600080600083815260200190815260200160002060009054906101000a900460ff169050919050565b600160008083815260200190815260200160002060006101000a81548160ff0219169083151502179055505056fea165627a7a723058203897f39b1f5796b3285c2b0e1897c7245e369827577d1cfe559fee86203c9ea70029",
  "source": "pragma solidity ^0.5.0;\n\ncontract ProofOfExistence {\n    mapping (bytes32 => bool) private proofs;\n\n    function notarize(string calldata document)\n    external {\n        bytes32 proof = proofFor(document);\n        storeProof(proof);\n    }\n\n    function proofFor(string memory document)\n    public\n    pure\n    returns (bytes32){\n        return sha256(abi.encodePacked(document));\n    }\n\n    function storeProof(bytes32 proof)\n    internal {\n        proofs[proof] = true;\n    }\n\n    function checkDocumnet(string memory document)\n    public\n    view\n    returns(bool){\n        bytes32 proof = proofFor(document);\n        return hashProof(proof);\n    }\n\n    function hashProof(bytes32 proof) \n    internal\n    view\n    returns (bool){\n        return proofs[proof];\n    }\n  \n        \n}",
  "sourcePath": "/home/sarabolouri/Desktop/PoE/contracts/proofOfExistence.sol",
  "compiler": {
    "name": "solc",
    "version": "0.5.0+commit.1d4f565a.Emscripten.clang"
  },
  "schemaVersion": "3.4.4",
  "updatedAt": "2022-02-02T10:40:30.606Z",
  "devdoc": {
    "methods": {}
  },
  "userdoc": {
    "methods": {}
  }
}